:020000040800F2
:10000000A071012061020008C3790008532F000885
:10001000C1790008730600089392000800000000F0
:10002000000000000000000000000000A101000826
:100030000F08000800000000FD010008158C0008F2
:100040007B0200087B0200087B0200087B0200089C
:100050007B0200087B0200087B0200087B0200088C
:100060007B0200087B0200087B0200087B0200087C
:100070007B0200087B0200087B0200087B0200086C
:100080007B0200087B0200087B0200087B0200085C
:100090007B0200087B0200087B0200087B0200084C
:1000A0007B0200087B0200087B0200087B0200083C
:1000B000F18C0008FD8C00087B0200087B02000820
:1000C0007B0200087B0200087B0200087B0200081C
:1000D0007B0200087B0200087B0200087B0200080C
:1000E0007B0200087B0200087B0200087B020008FC
:1000F0007B0200087B0200087B0200087B020008EC
:100100007B0200087B0200087B0200087B020008DB
:100110007B0200087B020008098D00087B020008B2
:100120007B020008D90600087B0200087B02000859
:100130007B020008610800087B0200087B020008BF
:100140007B0200087B0200087B0200087B0200089B
:100150007B0200087B0200087B0200087B0200088B
:100160007B0200087B0200087B0200087B0200087B
:100170007B0200087B0200088D06000800000000DA
:100180007B0200087B020008DFF810D000F042FA82
:1001900000480047A9D90008AFF30080A0710120F2
:1001A0002C4B19680868B0E8F04F80F30988BFF35A
:1001B0006F8F4FF0000080F311887047000000003F
:1001C00008480068006880F308884FF0000080F35A
:1001D000148862B661B6BFF34F8FBFF36F8F00DF35
:1001E00000BF00BF08ED00E0DFF80C00016841F43B
:1001F00070010160704700BF88ED00E0EFF30980F7
:10020000BFF36F8F134B1A681EF0100F08BF20ED5D
:10021000108A20E9F04F106009B44FF0500080F3CD
:100220001188BFF34F8FBFF36F8F18F01DFF4FF092
:10023000000080F3118809BC19680868B0E8F04F25
:100240001EF0100F08BFB0EC108A80F30988BFF3CE
:100250006F8F704764010020EFF305807047000046
:100260000648804706480047FEE7FEE7FEE7FEE750
:10027000FEE7FEE7FEE7FEE7FEE7FEE7D58C0008B7
:10028000890100082DE9F05F0546002092469B4653
:1002900088460646814640241BE02846414647469C
:1002A000224600F049F953465A46C01A914110D3EC
:1002B00011461846224600F030F92D1A67EB010866
:1002C0004F4622460120002100F027F917EB0009D4
:1002D0004E41201EA4F10104DFDC484631462A4687
:1002E0004346BDE8F09F2DE9F0410024061B25465A
:1002F00071F1000605DA01240027D0EB070067EB57
:100300000101161E73F1000605DA0027D2EB070281
:10031000012567EB0303FFF7B5FF86460E46174638
:100320009C46AC4204D00025D0EB050E65EB0106DF
:1003300024B10020D2EB000760EB030C704631467D
:100340003A466346BDE8F0810649074A08685043CB
:1003500043F23902104408604008704701490860C0
:1003600070470000080200206D4EC64110B5431AC8
:10037000934209D28318881803E010F8011D03F88E
:10038000011D521EF9D210BD40EA01039B0703D0A4
:1003900009E008C9121F08C0042AFAD203E011F8C4
:1003A000013B00F8013B521EF9D210BDD2B201E070
:1003B00000F8012B491EFBD270470022F6E710B56A
:1003C00013460A4604461946FFF7F0FF204610BDC3
:1003D00030B504460020034600E05B1C934203D284
:1003E000E05CCD5C401BF8D030BD2DE9FE4F81EACA
:1003F000030404F0004421F0004100944FF0000B8E
:1004000023F0004350EA01045ED052EA03045BD0BB
:10041000C3F30A54C1F30A552C44A4F2F3340194F3
:10042000A0FB0254C1F3130141F48011C3F3130381
:1004300043F4801301FB024400FB034E840A970A35
:1004400044EA815447EA8357A4FB076802958D0A62
:1004500005FB07854FEA932C04FB0C542705029DEE
:100460004FEA065847EA1637B5EB08056EEB070C5E
:10047000870E920E47EA811742EA8312A7FB020118
:10048000B6EB0B0164EB00042B0D43EA0C335E1852
:1004900044EB1C50DA465146E7FB0201C5F3130456
:1004A0004FEA0B3343EA14534FEA0432019C43EA08
:1004B0000603A4F10C040294009CCDE900B400F002
:1004C0005AF803B0BDE8F08F00200146F9E70EB5F9
:1004D00040F2334102910021CDE900110A460B465A
:1004E00000F049F803B000BDC1F30A5210B5C1F3E2
:1004F000130140F2FF3341F480119A4201DA0020E7
:1005000010BD40F233439A42A2F2334203DC52421E
:1005100000F012F810BD904010BD202A04DB203AF4
:1005200000FA02F1002070479140C2F1200320FA46
:1005300003F3194390407047202A04DB203A21FA44
:1005400002F00021704721FA02F3D040C2F12002EC
:10055000914008431946704710B5141E73F100040A
:1005600008DA401C41F1000192185B411A4301D1A5
:1005700020F0010010BD2DE9F04D92469B4611B1CF
:10058000B1FA81F202E0B0FA80F220329046FFF731
:10059000C4FF04460F4640EA0A0041EA0B015346F5
:1005A0005A46084313D0114653EA010019D0C8F146
:1005B00040025046FFF7C0FF05460E4650465946DA
:1005C0004246FFF7AAFF084305D0012004E0204679
:1005D0003946BDE8F08D0020054346EAE0762C431D
:1005E00037430A986305E40AA0EB08000022FD0ADD
:1005F00044EA47540A3002D500200146E9E70105E4
:1006000010196941DDE9084500196941BDE8F04D5F
:10061000A2E70000064C074D06E0E06840F0010349
:1006200094E8070098471034AC42F6D3FFF7B0FDCA
:1006300064D2010884D2010830B58C1810F8012B5F
:1006400012F00F0301D110F8013B120906D110F886
:10065000012B03E010F8015B01F8015B5B1EF9D18F
:1006600001E001F8013B521EFBD1A142E6D300207C
:1006700030BDFEE710B5806B816B496D022902D059
:10068000012180F8251000F099FA10BD014800F012
:10069000B1BA00003002002005480068016841F04E
:1006A000010101600348016841F0010101607047E8
:1006B00070020020000005500548016821F001018A
:1006C00001600168C907FCD1024800F022BC0000AB
:1006D00000000550700200202DE9F0411D4D1F4C17
:1006E0001D4EDFF8788028681C4FB83CA8F16008E0
:1006F000B04202D91848543803E0B84203D916482A
:100700005838006804E0404501D9606800E020687E
:1007100010F4006F18D012A008F0BCFD28684FF448
:100720000061B04202D90C484C3803E0B84203D90A
:1007300009485038016004E0404501D9E16000E01B
:10074000A1600B4800688047BDE8F041014800F017
:10075000F3BB00007002002058640240B860024001
:1007600044434D4920436C6561720D0A000000004E
:100770004C00002001681823CAB2103AB2FBF3F211
:10078000054B6FF30901032A9B5CC36500D9091D62
:100790008165084670470000EC9F010810B50146CE
:1007A00000208B698A6A4FF0C07453B1B3F5005FC3
:1007B00015D072B1012A0CD0022A0AD0032A09D11D
:1007C00004E01AB1012A06D0022A03D1C96AC9017C
:1007D00000D5012010BDC96AA142FAD010BD002A7F
:1007E000F7D0012AF2D0022AF3D0032AF3D010BDA9
:1007F00010B5046863608368402B036803D0996078
:100800000068C26010BD9A600068C16010BD70478A
:10081000064908B509684FF4FA52B1FBF2F14143B9
:10082000009100BF491E0091FBD208BD8C00002042
:1008300038B50446006800F58050816941F48011A4
:100840008161206800F58050806900900120FFF7E9
:10085000DFFF2068009900F58050816138BD0000FD
:10086000014800F007BE0000103500202DE9F041DE
:10087000044621B14FF40060E060C000A060E06970
:100880000026002861D035462068402702683C4990
:100890000A40D4E902131943294341F4007111437A
:1008A000016020680568012000F080FC2068056078
:1008B0002068476020684568012000F077FC2068C8
:1008C0004560206886602068C660206881694FF6B0
:1008D0004172114041F080018161206885690120E9
:1008E00000F064FC206885612068C6612068C569E5
:1008F000012000F05BFC2068C561206800F5805095
:100900008169204A1140204A0A438261206800F52B
:1009100080508569012000F049FC206800F5805076
:1009200085612068194900F580500160206800F554
:1009300080500568012000F039FC206800F58050E7
:100940000560A069012803D009E04FF480659BE7AA
:10095000206800F58050C1690D4A1143C16160698A
:100960000C4A818811640178C37841EA0361837875
:1009700040781B0443EA002001435164BDE8F08144
:100980000F8120FF233FDEF8040020028020C102F7
:10099000400001000080024072B6FEE770B5B3F57A
:1009A000804F05D06FF0704140F82210002070BDDC
:1009B00050F82230084C2340D1E9004544EA0514A0
:1009C0008D688E892D0245EA064589692C430C43C2
:1009D0001C4340F82240E9E70000F0CFF0B50C6876
:1009E00050F82450114A1540D1E90123D1E9036799
:1009F0001A433E4332434E6932438E693243CE69D5
:100A000032430E6A32434E6A32438E6A3243CE6AB2
:100A10003243CE6B096B32430A432A43082B01D180
:100A200042F0400240F824200020F0BD8000F0FF9A
:100A300030B500EB82004268D1E9003443EA041388
:100A40008C688D89240244EA054423430C8A084DAE
:100A500002F0404205EB045423430C7D6D0105EB8D
:100A60000464896923430B4313434360002030BD72
:100A70000000F0FF2DE9F041064638A008F00AFC1E
:100A8000394C002516B1012E66D132E021780806D6
:100A900062D536A008F0FEFB207800F03F02D30FAD
:100AA00017461E4638A008F0F5FB3A464FF0FF30D7
:100AB000A2FB0017334603FB0070002602FB06036F
:100AC00060680A186B4114461E4631A008F0E2FB2C
:100AD00022460A21A2FB0105002406FB015102FB6C
:100AE00004113A222346FFF7FEFB044601462CA0E0
:100AF0002DE0607801062FD500F03F02D30F174696
:100B00001E4621A008F0C6FB3A464FF0FF30A2FB7C
:100B10000017334603FB0070002602FB0603A068A3
:100B20000A186B4114461E4619A008F0B3FB224672
:100B30000A21A2FB0104002506FB014102FB05116D
:100B40003A222B46FFF7CFFB0446014617A008F0D8
:100B5000A1FBA0B2BDE8F0810020FBE74765745F10
:100B6000446973740D0A0000C401002054494D32D9
:100B700043485F434150545552455F5354413A25D1
:100B8000642075730D0A0000256C6C640D0A00006A
:100B9000484947483A256C6C642075730D0A00007B
:100BA00064697374203D2025640D0A0064697374C0
:100BB00032203D2025640D0A00000000704700002F
:100BC00010B507A008F066FB0BF044F908480121B6
:100BD000026851610068C16841F00101C16010BD47
:100BE000BDF8C8EBD6A1D6D0B6CF0D0A00000000E4
:100BF000300200202DE9F041044600680569224FCB
:100C000069074FF004060BD54661E06B40F0020027
:100C1000E06384F82560A06B0765A06B00F079F9AC
:100C2000A8070DD5216802204861E06B40F0010063
:100C3000E06384F82560A06B0765A06B00F069F99C
:100C4000E80605D5216810204861204600F05CF8D0
:100C5000280705D5216808204861204600F026F9BC
:100C6000E8070FD020680168890703D5C16821F023
:100C70001E01C1602068C16821F00101C1602046E9
:100C8000FFF79EFFBDE8F0817506000810B504006F
:100C900003D094F8250010B104E0012010BD2046D7
:100CA00000F034F8022084F825002068016840F63E
:100CB000F87291430160616860690143D4E90302FD
:100CC00010430143A0680143A0690143206A014326
:100CD00020680268114301606068102808D1A17F74
:100CE000A08B61F31F40E17F40EA016021688861C9
:100CF0002068C16841F01E01C1600020E06301204E
:100D000084F82500002010BD704700002DE9F04157
:100D100086B00646142101A8FFF74FFB5049306802
:100D200088427CD14F480027016841F001010160F1
:100D3000006800F0010000904A48001F016841F07F
:100D400010010160016801F010010091016841F09B
:100D500001010160016801F001010091016841F0A9
:100D600004010160016801F004010091016841F093
:100D700002010160006801A900F0020000906020FB
:100D80000224012581E831004FF00D08CDE9044827
:100D9000354800F005FF01A9502081E83100CDE978
:100DA0000448324800F0FCFE01A94FF43C6081E8A1
:100DB0003100CDE904482E4800F0F2FE01A9C02020
:100DC00081E83100CDE904482A4800F0E9FE2B4CC7
:100DD000294804F1240120606806C4E90107C01312
:100DE000C4E90370800060618000A0618011E0614F
:100DF00040022062042081E8A1002046276300F021
:100E00006BF908B1FFF7C8FDB463002201214E2041
:100E1000A66301F031F84E2001F020F800E01BE05D
:100E2000DFF83C8084F834704FF44066144F154D61
:100E300008F1280802E014A008F02CFA00963B689C
:100E400041460E482A6800F032F80028F3D12068A5
:100E5000016841F01001016006B0BDE8F0810000BA
:100E600000000550343802400010024000000240EB
:100E70000008024000040240286402407002002082
:100E8000140000201000002048414C5F444D4145B3
:100E9000785F4D756C7469427566666572537461EE
:100EA00072744641494C0D0A0000000070472DE95C
:100EB000F041044680680025069E80280ED094F8F4
:100EC000340001280FD0012084F8340094F8350054
:100ED00001280AD002252846BDE8F0814FF4807031
:100EE00060650125F7E70220F6E7022084F8350067
:100EF0002068076847F4802707602068036133464D
:100F00002046FFF775FC2068016841F0010101608F
:100F1000E1E790F83510022903D0802141650120D6
:100F20007047052180F835100068016821F0010143
:100F300001600020704700002DE9F84304464FF09F
:100F40000009CDF8009063484FF41651A56D006874
:100F5000B0FBF1F72E6894F85C20082101FA02F04A
:100F600030420FD02068026852070BD5026822F089
:100F70000402026094F85C008140A960606D40F05A
:100F80000100606594F85C104FF0010808FA01F068
:100F9000304208D021684969090604D5A860606D0F
:100FA00040F00200606594F85C10042088403042F4
:100FB00008D021680968890704D5A860606D40F0F1
:100FC0000400606594F85C1010208840304218D00E
:100FD00021680968090714D5A860206801684903D9
:100FE00004D50068000308D5A16C07E00168C905B5
:100FF00003D4016821F008010160216C09B1204689
:10100000884794F85C1020208840304231D0216815
:101010000968C9062DD5A86094F835000528206810
:10102000016806D0490347D5006800031DD4616CF0
:101030001CE021F0160101602068416921F0800167
:101040004161206C08B9A06C20B12068016821F0D2
:101050000801016094F85C103F208840A86084F883
:10106000349084F83580216D1FE0E16B09B1204692
:101070008847606D00282BD0606DC00714D0052014
:1010800084F835002068016821F0010101600098B2
:10109000401C0090B84203D820680068C007F6D111
:1010A00084F8349084F83580E16C002910D001B0C8
:1010B0002046BDE8F04308470168C905D5D401685A
:1010C00021F01001016084F8349084F83580CCE779
:1010D000BDE8F8838C0000202DE9F041044600F0C3
:1010E0003FFE05465CB1002684F83460022084F897
:1010F00035002068016821F0010101600DE0012048
:10110000BDE8F08100F02CFE401B052805D9202009
:101110006065032084F83500F2E720680068C007A6
:10112000F0D121680A6820480240D4E9010318433D
:10113000D4E903352B43184363691843A369184363
:10114000E3691843236A18431043626A042A03D1EF
:10115000D4E90B231A431043086020684069656A8C
:1011600020F0070128460D43012704280CD1A06A6E
:101170000543E06A40B12046FFF710FB20B1402054
:10118000606584F83570BAE7206845612046FFF74E
:10119000F1FA94F85C203F2191408160666584F803
:1011A00035700020ACE700003F8010F070B50446B9
:1011B00000F0D6FD0546601C02D0044800780444C7
:1011C00000F0CEFD401BA042FAD370BD800000208D
:1011D0002DE9F041054690F845000C46012875D0F0
:1011E000012685F84560022085F844002868002C17
:1011F0006FD0026841490A40D4E900131943D4E989
:1012000002373B431943AB681943236919436369A8
:101210001943EB681943A3691943E3691943236A26
:101220001943636A1943A36A19431143016028688B
:1012300007680120FFF7BAFF28680760D4E90B01AF
:101240000843D4E90D1211430843E16B0843216CB4
:101250000843616C0843A16C08432968486028680A
:1012600047680120FFF7A2FF286847602968E06C03
:1012700088602968206DC860286882694FF64171CE
:101280000A40D4E916131943B4F85470236E43EAA4
:1012900007431943636E1943A36E194311438161D8
:1012A000286887690120FFF781FF28688761D4E9F2
:1012B0001B0108432968C8612868C4690120FFF739
:1012C00075FF2868C46113E000E002E00220BDE879
:1012D000F081016821F49042D5E9021319431143CA
:1012E0000160286804680120FFF760FF2868046037
:1012F00005F8446F00206870E9E700000F8120FFC7
:101300002DE9F04390F845500024012D0DD04FF009
:10131000010980F84590022580F8445044F2F45CBD
:101320004FF000485F1E816216E00220BDE8F083A6
:1013300001EB4415C5F80080C4EBC41606EB460665
:1013400002EB8606C5E901C6BC4203D205F12006C0
:10135000EE6000E0E960641C9C42E9D3026802F59B
:101360008052D16080F84490002180F845100846F2
:10137000DCE72DE9F04390F845400025012C0BD027
:101380004FF0010C80F845C0022480F844404FF42F
:1013900080195F1EC1621BE00220BDE8F08301EBF3
:1013A0004514C4F80090C5EBC51606EB460602EBE3
:1013B0008606A660C6691EB9266846F44006266001
:1013C000BD4203D204F12006E66000E0E1606D1C3E
:1013D0009D42E4D3026802F58052116180F844C056
:1013E000002180F845100846D7E7704730B590F8DF
:1013F00045100022012908D0012380F84530022140
:1014000080F844100024816A1AE0022030BD0D6883
:10141000521CC5F30125022D0AD00D6815F4407F3A
:1014200009D04163826B521C8263012A12D012E000
:101430008363016302E0856B6D1C8563C96881620B
:101440000D68002D01DB042AE1D300F8443F44700D
:10145000012030BD01630A68C2F30D42121FC2634E
:10146000026B92680264C96840F8281F03774477CA
:10147000002030BD70B50446006800F58050416919
:101480004FF0000649064FF0010508D5204600F050
:10149000E9F92068402100F58050416109E0406988
:1014A000C0070AD0204600F0EBFA206800F5805013
:1014B000456184F8445084F8456020684FF48031D9
:1014C00000F580504161206800F5805040690004BB
:1014D0000CD52046FFF789FF20684FF4004100F546
:1014E0008050416184F8445084F8456070BD00002C
:1014F0002DE9FC474FF000060400B146009603D0EA
:1015000094F8440018B107E00120BDE8FC8784F896
:101510004560204600F0E0F86548016841F48041EC
:101520000160006800F4804001906248016821F485
:10153000000101600168226A11430160206800F522
:101540008050016841F00101016000F009FC05468E
:101550004FF4FA7708E000F003FC401BB84203D9CF
:10156000032004F8440F67E0206800F5805000680D
:10157000C007F0D12068006920F01C0500F068FD6C
:101580004D494E4A0144914202D245F0080516E009
:101590004B494C4A0144914202D245F00C050EE001
:1015A00049494A4A0144914209D3494908444949B1
:1015B000884202D245F0040501E045F0100520689C
:1015C00005614FF400420021204600F05AFA01253F
:1015D000A8BBFF20FFF7EAFD606888B300F0C0FBFE
:1015E000804641F288376A460121204600F0F8F82B
:1015F00000F0B6FBA0EB0800B84217D800984007EF
:10160000F1D54FF480520021204600F03AFAB0B9EB
:1016100000F0A6FB80466A460121204600F0E0F873
:1016200000F09EFBA0EB0800B8420AD90121204639
:10163000FFF71CF904F8445F0320667065E724E0B7
:1016400018E000988006E6D56A461F21204600F083
:10165000C7F8D0B90098C10603D54FF40061E16026
:1016600000E0E660400701D5A66019E04FF4804035
:10167000A06015E0E068A168C00840EA510082B2AD
:101680000021204600F0FDF930B101212046FFF78E
:10169000EDF884F8445037E740F6FF70FFF786FD19
:1016A00049462046FFF7E2F884F8445000202CE732
:1016B000443802400438014000D3CEFEC0E1E400CB
:1016C00040F1E9FD40787D0100796CFC005A62022E
:1016D000001F0AFA80F0FA02F0B587B00446142120
:1016E0006846FEF76AFE38492068884269D1374863
:1016F0000024016841F000710160016801F000718F
:101700000591016841F080610160016801F080612C
:101710000591016841F000610160016801F000611C
:101720000591016841F004010160016801F00401C4
:101730000591016841F001010160016801F00101BA
:101740000591016841F0400101600068022500F048
:10175000400005903220CDE9000502AA03260B27A0
:1017600082E8D00069461A4800F01AFA8620CDE9CE
:10177000000502AA694682E8D000164800F010FA77
:101780004FF4D040CDE9000502AA694682E8D000B6
:10179000114800F005FA002205213D2000F06CFB05
:1017A0003D2000F05BFB0D4C00220821204600F09C
:1017B000D1FA3220FFF7FAFC01220821204600F07E
:1017C000C9FA07B0F0BD0000008002403038024086
:1017D000000802400000024000180240000C0240D5
:1017E0002DE9F047044690F84400914682281DD028
:1017F000822084F84400206802694FF6FF7502F0E9
:101800001C03228A05EAC2221A434FF4F86303EA52
:101810008111114321F0020141F00105056100F041
:101820009FFA064601274FF480380FE00220BDE8FA
:10183000F08700F095FA801B404505D304F8447FFB
:10184000002060700320F2E720680569E807F0D106
:101850002068406981B2C9F8001084F84470002003
:10186000E5E70000014800680EF04ABA5800002081
:10187000F8B5044690F84500012839D0012584F8D0
:101880004550022084F8440020680026016841F099
:10189000080101602068006800902846FEF7B8FF44
:1018A0002168009808602068016841F00401016027
:1018B0002068006800900120FEF7AAFF21680098C8
:1018C00008602046FEF7B4FF206800F5805081696B
:1018D00041F400518161206800F58050816941F038
:1018E0000201816184F8445084F845600020F8BD0D
:1018F0000220F8BDF8B5044690F84500012839D01B
:10190000012584F84550022084F84400206800F541
:101910008050816921F400518161206800F5805078
:10192000816921F00201816120680026016821F0AF
:10193000040101602068006800900120FEF768FF44
:101940002168009808602046FEF772FF2068016851
:1019500021F0080101602068006800900120FEF776
:1019600057FF21680098086084F8445084F8456067
:101970000020F8BD0220F8BDF0B590F845300022F7
:10198000012B11D0012780F84570022380F84430E4
:10199000002559B1C46A2368002B0ADA122100F825
:1019A000441F45700120F0BD0220F0BD00F8447FC7
:1019B000F7E740F2F456B1420BD9B1FBF6FCB1FBAC
:1019C000F6F306FB1C1CBCF1000F00D05B1C012BC6
:1019D00043D1226842F040522260C26AC1F30C0136
:1019E0005160C16A0A6842F000420A60C16AC9686F
:1019F000C16234E0D4F800C02CF0405CC4F800C0F0
:101A000032B9C46AD4F800C04CF0805CC4F800C09D
:101A1000C46A66605C1EA24214D1C46AD4F800C0D5
:101A20004CF0005CC4F800C0C3F10104C4EBC41462
:101A300004EB4404D0F82CC001EB8404C4F30C0480
:101A4000CCF80440C46AD4F800C04CF0004CC4F890
:101A500000C0C46A521CE468C4629A42CAD30168D6
:101A600001F580514A69520705D504224A6101688F
:101A700001F580514D6000F8447F45700020F0BDB5
:101A800070472DE9F041044690F8440042281ED0EA
:101A9000422084F84400206803694FF6FF7603F083
:101AA0001C05238A06EAC3232B434FF4F86505EA95
:101AB0008111194341F0030591B24161206805612C
:101AC00000F04EF9064601274FF480380FE002205F
:101AD000BDE8F08100F044F9801B404505D304F8CF
:101AE000447F002060700320F2E720680569E80762
:101AF000F0D184F84470EBE7F0B587B01421684664
:101B0000FEF75BFC2048016800293AD10121016001
:101B10001E480024016841F00101016000680225AF
:101B200000F0010005904FF23F00CDE9000502AA48
:101B300003260C2782E8D0006946154800F030F8EB
:101B400041F23F40CDE9000502AA694682E8D00093
:101B5000104800F025F84FF68370CDE9000502AA81
:101B6000694682E8D0000C4800F01AF84FF633704E
:101B7000CDE9000502AA694682E8D000074800F0D6
:101B80000FF807B0F0BD00005000002038380240C8
:101B9000001402400018024000100240000C0240F5
:101BA0002DE9F84FDFF880B100224FF003094FF024
:101BB0000F0A0BF1040E01250B6895402B40AB4238
:101BC00072D14C68012C05D0022C03D0112C01D00D
:101BD000122C10D18668540009FA04F7BE43CF686E
:101BE000A7403743876046680C79AE43C4F30014BE
:101BF000944034434460C468570009FA07F58E687E
:101C0000AC43BE402643C6604C68022C01D0122C67
:101C100012D1D40800EB840CDCF820605407E40EE9
:101C20000AFA04F826EA0806D1F8108008FA04F83F
:101C300048EA0608CCF820800468AC430D7905F02A
:101C40000305BD40254305604C68E40065D5374C6D
:101C5000256845F480452560246822F0030504F4D6
:101C600080440094324C2E19D6F808789407250F3A
:101C70000AFA05F4A7432F4CA04201D1002424E026
:101C80002D4CA04201D101241FE02C4CA04201D1D7
:101C900002241AE02A4CA04201D1032415E0294C69
:101CA000A04202D1042410E037E0274CA04201D129
:101CB00005240AE0254CA04201D1062405E0244C6D
:101CC000A04201D1072400E00824AC403C43C6F800
:101CD0000848DBF800405D464E689C43F60300D59B
:101CE0001C432C60DEF8004075464E689C43B603EA
:101CF00000D51C432C600C4D08352C684E689C4365
:101D0000F60200D51C432C60074D0C352C684E683C
:101D10009C43B60200D51C432C60521C102AFFF4D1
:101D20004AAFBDE8F88F0000003C01404438024053
:101D30000030014000000240000402400008024060
:101D4000000C024000100240001402400018024043
:101D5000001C02400AB1816170470904FBE70000E2
:101D600001488068704700008000002002488168B8
:101D70000278114481607047800000200B4810B544
:101D8000016841F400710160016841F48061016003
:101D9000016841F480710160032000F08DF800209B
:101DA00000F006F800F03EF8002010BD003C0240B4
:101DB00010B5014688B00022362000F05DF83620CC
:101DC00000F04CF813480024016841F01001016054
:101DD000006805A900F010000690684600F018F9A8
:101DE00000F03CF90C494000B0FBF1F10C480B4A03
:101DF000491E026040F2E732C0E90324C0E9011441
:101E000000F098FB10B1012008B010BD044800F0AC
:101E10001FFCF9E74038024040420F00001000402C
:101E2000300400200C4882B0016841F48041016018
:101E3000006800F4804000900748001F016841F0EE
:101E4000805101600068002200F0805000900F2156
:101E5000901E02B000F010B844380240002809DBA0
:101E600000F01F02012191404009800000F1E020B4
:101E7000C0F8001170470000F0B40E4B1B68C3F3AC
:101E80000223C3F10704042C00D904241D1D072DCF
:101E900001D2002300E0DB1E012606FA04F56D1EC8
:101EA0000D409D409E40761E164045EA0601F0BC5E
:101EB00007F000BA0CED00E0064A00F007011068D8
:101EC0004FF6FF03184040EA012003490843106021
:101ED000704700000CED00E00000FA052DE9F04726
:101EE0000D46040065D0DFF81491D9F80000EFB278
:101EF00000F00F00A84207D289F80070D9F800005E
:101F000000F00F00A84254D120683D4E810712D541
:101F1000400703D5306840F4E05030602078000777
:101F200003D5306840F4604030603068A16820F02C
:101F3000F000084330602078C0072DD03049606839
:101F40000839012812D0022813D0032811D00968BB
:101F5000890700292DDA316821F00301014331603E
:101F6000FFF7FEFE804641F2883A0EE009688903D9
:101F7000EFE709688901ECE7FFF7F2FEA0EB080143
:101F8000514502D90320BDE8F0873068616800F050
:101F90000C00B0EB810FEFD1D9F80010484601F0EA
:101FA0000F01A94207D90770006800F00F00A8428E
:101FB00001D00120E7E72078400705D53068E168C7
:101FC00020F4E050084330602078000706D53068E0
:101FD000216920F4604040EAC100306000F05EF802
:101FE0003168084AC1F30311515CC84006490860D2
:101FF00006480068FFF7DCFE0020C4E7003C024012
:1020000008380240F49F01088C0000208400002062
:102010000F2202600C4A136803F003034360136845
:1020200003F0F0038360136803F4E053C3601268A5
:102030004FF4E05303EAD20202610448006800F062
:102040000F0008607047000008380240003C024062
:1020500001480068704700008C00002004480549D2
:1020600000680968044AC1F38221515CC840704786
:102070008C0000200838024004A0010804480549EB
:1020800000680968044AC1F34231515CC840704796
:102090008C0000200838024004A00108154810B543
:1020A000006810F00C01144813D0431004290FD01D
:1020B00008290ED10F4C241F216801F03F0221682E
:1020C000490207D52068C0F38810A0FB030106E091
:1020D000184610BD2168C1F38811A1FB000100233F
:1020E000FEF7D0F82168C1F30141491C4900B0FB5B
:1020F000F1F010BD083802400024F4002DE9F84F3B
:10210000040075D02078DFF828A3C007AAF10405E1
:1021100048D00AF104000168C1F38101012908D007
:102120000068C0F3810002280AD1DAF800004002FA
:1021300006D52868800335D560680028E1D031E0F5
:102140006068B0F5803F10D0B0F5A02F286810D09F
:1021500020F480302860286820F48020286060689F
:10216000A0B1FFF7FDFD06460CE0286840F4803082
:10217000F4E740F480202860F7E7FFF7F1FD801BCB
:10218000642871D828688003F7D50BE0FFF7E8FDD5
:10219000064604E0FFF7E4FD801B6428F1D82868B8
:1021A0008003F7D42078DFF88C9280074FF0000B83
:1021B0003DD59F48001D016811F00C0F08D0006844
:1021C000C0F3810002280AD1DAF80000400206D4E8
:1021D0002868800715D5E068012809D111E0E0687A
:1021E000B8B10121C9F80010FFF7BAFD064605E0B5
:1021F0001AE1FFF7B5FD801B0228C2D828688007C6
:10220000F7D52868216920F0F80040EAC10028606D
:102210000DE0C9F800B0FFF7A3FD064604E0FFF7A4
:102220009FFD801B02281FD828688007F7D42078DC
:10223000000722D57E4F80486169703771B1012156
:102240000160FFF78DFD064604E0FFF789FD801B66
:10225000022809D838688007F7D50EE0C0F800B02A
:10226000FFF77EFD064605E082E0FFF779FD801B63
:1022700002287DD838688007F7D42078400765D5D4
:102280006B484FF000083C300068C0000BD4684831
:102290003C30016841F08051016000684FF0010856
:1022A00000F080500090654F3868C0050FD4386842
:1022B00040F480703860FFF753FD064604E0FFF7F6
:1022C0004FFD801B022853D83868C005F7D5584FFA
:1022D000A0686C3701280FD00528386810D020F08E
:1022E00001003860386820F004003860A068B0B1A0
:1022F000FFF736FD06460EE0386840F00100F4E7CF
:1023000040F004003860F7E7FFF72AFD811B41F237
:102310008830814263D838688007F5D50DE0FFF733
:102320001FFD064606E0FFF71BFD811B41F28830CA
:10233000814254D838688007F5D4B8F1000F05D031
:102340003B483C30016821F080510160A069B8B37E
:102350003749091D0968C1F38101022946D00228C5
:10236000584606D0C9F86000FFF7FAFC044639E089
:1023700035E04F46C9F86000FFF7F2FC064604E07E
:10238000FFF7EEFC801B022829D828688001F7D4CB
:10239000D4E907010843A16A294A490802EB01412F
:1023A000626A41EA8211084394F82C1040EA016104
:1023B000CAF8001001203866FFF7D2FC044605E099
:1023C00034E0FFF7CDFC001B022808D82868800104
:1023D000F7D52BE0FFF7C4FC001B022802D903202D
:1023E000BDE8F88F28688001F4D41FE00128F7D0F9
:1023F000DAF80000E26900F48001914214D1226A07
:1024000000F03F0191420FD147F6C071626A01406E
:10241000914209D1A26A00F44031914204D1E16AAB
:1024200000F07060884201D00120D9E70020D7E792
:102430000438024000004742800E474200700040CE
:102440000000FFFF70B515460E46040003D094F857
:10245000490010B107E0012070BD002084F8480059
:10246000204600F01AF804F108012068FEF7B6FAD9
:102470003146A2682068FEF7DBFAD4E9010229465A
:10248000236BFEF78BFAA168206850F8212042F0F8
:10249000010240F82120002070BDFFF72DBB7047DE
:1024A0007047000070B590F83C20012A32D0012519
:1024B00080F83C50022280F83D20026853689468FE
:1024C00023F070060B6833435360134B02689A4243
:1024D00014D0B2F1804F11D0104B9A420ED0104B55
:1024E0009A420BD00F4B9A4208D00F4B9A4205D01C
:1024F0000E4B9A4202D00E4B9A4204D1496824F006
:1025000080031943916080F83D50002180F83C1011
:10251000084670BD022070BD00000140000400406C
:1025200000080040000C0040000401400040014051
:102530000018004010B5040003D094F83D0010B11D
:1025400007E0012010BD002084F83C00204600F088
:102550000DF8022084F83D00211D206806F0DAFB0A
:10256000012084F83D00002010BD000030B587B088
:10257000044614216846FDF720FF20682749B0F182
:10258000804F14D0264A90420FD1086840F00200D4
:1025900008600868002200F00200059005211D2057
:1025A000FFF76AFC1D20FFF759FC07B030BD086833
:1025B00040F001000860086800F00100059017482D
:1025C0001038016841F001010160016801F001016A
:1025D0000591016841F0020101600068022400F0E9
:1025E000020005900820CDE9000401250294694607
:1025F0000C48CDE90345FFF7D3FA6002CDE90004AA
:10260000029469460848CDE90345FFF7C9FA00225C
:1026100005211C20FFF730FC1C20C4E74038024095
:10262000000400400000024000040240022180F843
:102630003D1001688A6802F00702062A03D00A6882
:1026400042F001020A60012180F83D10002070472D
:102650000168CA6842F00102CA600068816801F03E
:102660000701062903D0016841F001010160002043
:10267000704770B5044690F83C00012817D001253A
:1026800084F83C50022084F83D002068826822F0E3
:10269000770222F47F4282600868502830D00DDC37
:1026A00020284DD005DC98B310283BD148E002200B
:1026B00070BD302844D0402834D139E0602828D07B
:1026C000702806D0B0F5805F2CD0B0F5005F29D11E
:1026D0000AE0CB68D1E90121206806F08CFB206874
:1026E000816841F0770109E0CB68D1E901212068D8
:1026F00006F081FB2068816841F48041816011E02F
:10270000CA684968206806F04BFC5021206807E041
:1027100016E0CA684968206806F094FC60212068C9
:1027200006F073FB84F83D50002084F83C0070BD37
:10273000CA684968206806F033FC40212068EFE74A
:10274000226801461046EBE72DE9F0470168B1F138
:10275000804F21D1007F40273B4E00253B4C41F26A
:10276000111840F24449042818D0082814D1707870
:10277000010611D4410645D540F0800070700C214F
:10278000204600F00BFBB0602068016A21F4204174
:1027900001622068016A0162BDE8F08730780106B5
:1027A000FAD4400610D52AA006F074FD307808212E
:1027B00040F080003070254800F0F0FA706020682A
:1027C000016A21F42061E3E725A006F063FD37707C
:1027D00075602068016A11EA080F07D1016A11EAE1
:1027E000090F03D1016821F00101016020684562F1
:1027F0002068016A21F4206101622068016A41F4C5
:10280000007119E0B56077702068016A11EA080F5D
:1028100007D1016A11EA090F03D1016821F0010112
:102820000160206845622068016A21F4204101624C
:102830002068016A41F4005101622068016841F09A
:1028400001010160A8E70000C4010020700300201E
:10285000B2B6BBF1B5BDCFC2BDB5D1D80D0A00002F
:10286000B2B6BBF1B5BDC9CFC9FDD1D80D0A0000C4
:102870002DE9F041044690F83C000D4601283CD07B
:10288000012684F83C60022084F83D00A2B3042AAB
:1028900045D02068082A54D0D5E90027E968036AA2
:1028A00023F480530362D0F81CC0036A2CF4407CEC
:1028B0004CEA07274FF6FF7C27F470470CEA0131FA
:1028C00039434FF4204723F4204307EA02321A43E6
:1028D000C16102622068C16921F44061C161206860
:1028E000C169AA6841EA0221C16184F83D60002003
:1028F00084F83C00BDE8F08101E00220FAE7D5E968
:102900000012EB68206806F05DFB2068816921F009
:102910000C01816120688169AA6811430FE0D5E943
:102920000012EB68206806F09FFB2068816921F4A3
:102930004061816120688169AA6841EA0221816160
:10294000D3E7D5E9002C2F7B016A21F48071016265
:10295000C169036A21F0030141EA0C0121F0F00C86
:1029600039074FF420674CEA116123F4206307EA2A
:1029700002221A43C16102622068C16921F00C0180
:10298000C1612068C169AA681143ADE710B50400B0
:1029900003D094F83D0010B107E0012010BD0020E5
:1029A00084F83C00204600F00CF8022084F83D003A
:1029B000211D206806F0AEF9012084F83D000020BA
:1029C00010BD704710B50268044631B1042908D023
:1029D00008291AD00C2908D11BE0D06840F0020069
:1029E00002E0D06840F00400D0600122206806F0C8
:1029F000F5F92068816801F00701062903D0016814
:102A000041F001010160002010BDD06840F00800D5
:102A1000EAE7D06840F01000E6E770B504460068C9
:102A200001694FF00005C943890715D4C168C9433E
:102A3000890711D4E91E016101202077206880698F
:102A40008007204602D0FFF77FFE04E000F0C0F8C8
:102A5000204600F042F9257720680169C9434907FB
:102A600017D4C168C943490713D46FF00401016149
:102A7000022020772068806910F4407F204602D031
:102A8000FFF762FE04E000F0A3F8204600F025F90D
:102A9000257720680169C943090716D4C168C9436D
:102AA000090712D46FF00801016104202077206823
:102AB000C0698007204602D0FFF746FE04E000F020
:102AC00087F8204600F009F9257720680169C94395
:102AD000C90617D4C168C943C90613D46FF01001E1
:102AE0000161082020772068C06910F4407F2046EB
:102AF00002D0FFF729FE04E000F06AF8204600F05B
:102B0000ECF8257720680169C943C90708D1C16875
:102B1000C943C90704D1891E0161204600F000F9AC
:102B200020680169C943090609D4C168C943090677
:102B300005D46FF0800101612046FFF7B0FC2068EA
:102B40000169C943490609D4C168C943490605D486
:102B50006FF040010161204600F035F920680169FD
:102B6000C94389060BD4C168C943890607D46FF0ED
:102B7000200101612046BDE87040FFF791BC70BDA7
:102B800010B586B0044614216846FDF716FC0D49C1
:102B90002068884214D10C48016841F002010160AC
:102BA0000068012100F00200059030200090022012
:102BB000CDE901010390049069460448FEF7F0FF57
:102BC00006B010BD0004004030380240000402404E
:102BD000704770B5044690F83C000D4601280DD0B2
:102BE000012684F83C60022084F83D0042B1042AAA
:102BF00018D0082A2AD00C2A4DD139E0022070BD05
:102C0000206806F00BF92068816941F008018161B4
:102C10002068816921F004018161206881692A6945
:102C2000114311E0206806F029F92068816941F418
:102C3000006181612068816921F48061816120687F
:102C400081692A6941EA0221816124E0206806F055
:102C50004BF92068C16941F00801C1612068C16970
:102C600021F00401C1612068C1692A69114311E0A2
:102C7000206806F06DF92068C16941F40061C16106
:102C80002068C16921F48061C1612068C1692A6935
:102C900041EA0221C16184F83D60002084F83C00D3
:102CA00070BD10B5040003D094F83D0010B107E0EA
:102CB000012010BD002084F83C00204600F00CF8F4
:102CC000022084F83D00211D206806F023F8012031
:102CD00084F83D00002010BD7047704710B50446D1
:102CE0000068012206F07AF80B482168814202D080
:102CF0000A48814203D1486C40F40040486420688F
:102D0000816801F00701062903D0016841F0010143
:102D10000160002010BD00000000014000040140DF
:102D200030B40168B1F1804F27D1017F4FF0FF33FC
:102D300004290BD0082914D1134A11780C0610D499
:102D40004C060ED5CC43A40612D008E00F4A1178E9
:102D50000C0606D44C0604D5CC43A40603D0491C6B
:102D6000117030BC704741F080011170084903E0D8
:102D700041F08001117007490B60006806498842E4
:102D8000EFD130BCFEF7F2BFC5010020C401002026
:102D9000C8010020CC0100200010004002460020A5
:102DA00041B1042909D008290AD00C2901D11068A1
:102DB000006C70471068406B70471068806B7047FC
:102DC0001068C06B7047704770B5040004D094F869
:102DD0003900002510B106E0012070BD84F838509C
:102DE000204600F023F8242084F839002068C168C8
:102DF00021F40051C160204606F086F9206801697F
:102E000021F4904101612068416921F02A0141616A
:102E10002068C16841F40051C160E563202084F856
:102E2000390084F83A00002070BD000010B586B06B
:102E3000044614216846FDF7C0FA14492068884208
:102E400021D113480021026842F01002026000689C
:102E500000F0100005900E481438026842F001029C
:102E60000260006800F0010005904FF4C06000901F
:102E70000220CDE901010320039007200490694658
:102E80000448FEF78DFE06B010BD000000100140A2
:102E900044380240000002402DE9F843044690F80F
:102EA00039001E4617460D46202850D1B5B1AFB1A6
:102EB00094F8380001284AD0012084F838004FF0F7
:102EC0000008C4F83C80212084F83900FEF748FF50
:102ED000A7848146E78484F8388026E00120BDE895
:102EE000F883E08C401EE084A0684B46B0F5805F1C
:102EF0004FF000024FF080012046009603D006F00C
:102F000097F9E8B90DE006F093F9C8B92888216867
:102F1000C0F308004860206908B16D1C05E0AD1CD5
:102F200003E0216815F8010B4860E08C0028D8D137
:102F30004B46002240212046009606F079F908B160
:102F40000320CCE7202084F839000020C7E70220C6
:102F5000C5E7FEE72DE9F043184F06460024388800
:102F60007D884543B888A0F5D041043902D1B879AD
:102F7000012808D00021084603F054FD03F040FF6B
:102F80004FF0D84016E00020B8714FF02A09A7F89A
:102F90000A904FF02B08A7F80C80014603F042FD81
:102FA0000120B871A7F80A80A7F80C90E6E7A0F80E
:102FB0008060641CAC42FAD3BDE8F0837CBF002083
:102FC0002DE9F04F4A492A232B24898845F2105ACB
:102FD0004FF4305B4FF4285E4FF448754FF0F00C1F
:102FE00049F241394FF4A07745F210364FF4F072B0
:102FF00080B13F484FF00108494580F806800780BE
:10300000A0F802C001D0B1423ED12C2505814381F8
:10301000848157E036484FF00008494580F8068023
:10302000A0F800C0478006D0A1F5D04CBCF1040C3C
:1030300001D0B1420CD12C2505814381A1F5D043AB
:103040008481043B01D0B14244D10780428041E0F9
:10305000514507D1A0F808B0A0F80AE04FF42C5170
:1030600081810EE0A1F5C856633E06D02221018180
:1030700020214181212181812CE02C210181448169
:1030800083810280458025E0A1F5D04CBCF1040C81
:1030900009D051450BD1A0F808B0A0F80AE04FF4D0
:1030A0002C53838121E02C250581448109E0A1F581
:1030B000C85CBCF1630C12D022230381212343811D
:1030C00020238381A1F5D043043B01D0B14201D13B
:1030D00002804780BDE8F04F002003F0A1BB4FF015
:1030E0002C0CA0F808C04381848105804280E9E768
:1030F0007CBF00202DE9F043414D91460C4602462D
:10310000060AA9882846A1F5134340894FEA1428E6
:10311000413B17D0A1F5A643103B13D0A1F5AA431C
:10312000103B13D02E46A1F5C857B3793688B61A8E
:10313000761E633F23D0A1F5D047043F3AD0012B40
:103140004DD04DE003F050FE304639E003F04CFE28
:10315000304603F03DFE6889401C80B203F044FE17
:10316000D0B203F035FEA88903F03EFE404603F0DE
:103170002FFEA889401C80B203F036FE2BE003B975
:10318000B2B203F031FE160A304603F021FED0B28F
:1031900003F01EFE304603F01BFED0B203F018FE13
:1031A000A88903F021FE404603F012FEE0B203F0CE
:1031B0000FFE0DE0012B00D1B2B203F015FE100A94
:1031C00003F006FED0B203F003FEA88903F00CFE64
:1031D000404603F0FDFDE0B203F0FAFD07E0B2B2B5
:1031E000114603F017FEA889214603F013FE4FF0A5
:1031F000D840298920F87E1FA0F80290BDE8F0830E
:103200007CBF00202DE9F843204D1F468046AB8847
:10321000089EA3F5D040043802D1A879012807D030
:10322000A2EB0800401C85B20C464FF0D84929E0BB
:103230002B880846991A0024AC713A462A24A3EB3D
:1032400008036C812B27491E5B1EAF8189B29BB29C
:103250000096FFF7D7FF0120A8716F81AC81BDE810
:10326000F8832146404603F0DDFB03F0C9FD002052
:10327000494603E0A1F88060401C80B2A842F9D31F
:10328000641CA4B2BC42ECD9E9E700007CBF00207A
:103290002DE9F84F00200121009003F0BBFD322002
:1032A000FDF784FF002003F089FAFE4A4FF0204921
:1032B0004FF6FF7A908049F2413645F2103745F2D9
:1032C000105441F6631546F60408FF2804D3504510
:1032D00002D0B0F5134F73D1D32003F085FD03F076
:1032E00063FA908003F060FA908003F05DFA0AEAD6
:1032F0000020908003F058FA918808439080B042F3
:103300005ED0BF2003F070FD03F04EFA908003F012
:103310004BFA908003F048FA908003F045FA0AEAED
:103320000020908003F040FA918808439080404547
:1033300046D0D42003F058FD03F036FA908003F015
:1033400033FA908003F030FA0AEA0020908003F00C
:103350002BFA918808439080B84231D04FF45A40FC
:1033600003F042FD03F020FA90804FF45B4003F03D
:103370003BFD03F019FA0AEA002090804FF45C400C
:1033800003F032FD03F010FA918808439080B0F505
:10339000004F38D0A04213D0A12003F025FD03F048
:1033A00003FA908003F000FA0AEA0020908003F00C
:1033B000FBF991880843A0F5AE419080613920D097
:1033C00080B2B04205D0B84203D0A04201D0A8429A
:1033D0001BD1D9F81C11484621F00F01C9F81C1166
:1033E000D9F81C1121F47061C9F81C11D9F81C110D
:1033F00041F00301C9F81C11D9F81C1141F4007106
:1034000020E09580E5E79480E3E7404503D0A0F510
:103410004541053918D1D9F81C11484621F00F0152
:10342000C9F81C11D9F81C1121F47061C9F81C11DC
:10343000D9F81C1141F00A01C9F81C11D9F81C1166
:1034400041F44061C0F81C119146918896A005F0A6
:1034500021FFB9F80400B0427ED1CF2003F0C4FCB4
:10346000002003F0B5FCC12003F0B2FC302003F0D3
:10347000AFFCED2003F0B8FC642003F0A9FC0320AE
:1034800003F0A6FC122003F0A3FC812003F0A0FCB3
:10349000E82003F0A9FC852003F09AFC102003F03B
:1034A00097FC7A2003F094FCCB2003F09DFC39209C
:1034B00003F08EFC2C2003F08BFC002003F088FC32
:1034C000342003F085FC022003F082FCF72003F097
:1034D0008BFC202003F07CFCEA2003F085FC00201C
:1034E00003F076FC002003F073FCC02003F07CFCAA
:1034F0001B2003F06DFCC12003F076FC012003F0DB
:1035000067FCC52003F070FC302003F061FC302024
:1035100003F05EFCC72003F067FCB72003F058FC03
:10352000362003F061FC482003F052FC3A2003F0FF
:103530005BFC552003F04CFCB12003F055FC00204F
:1035400003F046FC1A2003F043FCB62003F04CFCC9
:103550000A2003F03DFC00E090E0A22003F038FCDC
:10356000F22003F041FC002003F032FC262003F09F
:103570003BFC012003F02CFCE02003F035FC0F2085
:1035800003F026FC2A2003F023FC282003F020FC73
:10359000082003F01DFC0E2003F01AFC082003F0A5
:1035A00017FC542003F014FCA92003F011FC432065
:1035B00003F00EFC0A2003F00BFC0F2003F008FCC4
:1035C000002003F005FC002003F002FC002003F0C3
:1035D000FFFB002003F0FCFBE12003F005FC0020D2
:1035E00003F0F6FB152003F0F3FB172003F0F0FBCC
:1035F000072003F0EDFB112003F0EAFB062003F0A7
:10360000E7FB2B2003F0E4FB562003F0E1FB3C201A
:1036100003F0DEFB052003F0DBFB102003F0D8FBFA
:103620000F2003F0D5FB3F2003F0D2FB3F2003F037
:10363000CFFB0F2003F0CCFB2B2003F0D5FB0020A9
:1036400003F0C6FB002003F0C3FB012003F0C0FB26
:103650003F2003F0BDFB2A2003F0C6FB002003F04F
:10366000B7FB002003F0B4FB002003F0B1FBEF2018
:1036700003F0AEFB112003F0B7FBB1E040457CD175
:10368000112003F0B1FB142006F010F8D02003F055
:10369000ABFB072003F09CFB422003F099FB1D20AD
:1036A0000AE000007CBF0020204C43442049443AFB
:1036B00025780D0A0000000003F08AFBD12003F0FA
:1036C00093FB002003F084FB1A2003F081FB092008
:1036D00003F07EFBD22003F087FB012003F078FB90
:1036E000222003F075FBC02003F07EFB102003F0C6
:1036F0006FFB3B2003F06CFB002003F069FB022012
:1037000003F066FB112003F063FBC52003F06CFBA4
:10371000032003F05DFBC82003F066FB002003F0EC
:1037200057FB252003F054FB212003F051FB05201B
:1037300003F04EFB002003F04BFB0A2003F048FB94
:10374000652003F045FB252003F042FB772003F0C2
:103750003FFB502003F03CFB0F2003F039FB00201F
:1037600003F036FBF82003F03FFB012003F030FBB1
:10377000FE2003F039FB002000E037E003F028FBD7
:10378000022003F025FB202003F02EFB362003F05F
:103790002BFB082003F01CFB3A2003F025FB5520EF
:1037A00003F016FB2B2003F01FFB002003F010FB9F
:1037B000002003F00DFB012003F00AFB3F2003F083
:1037C00007FB2A2003F010FB002003F001FB002080
:1037D00003F0FEFA012003F0FBFADF2003F0F8FA11
:1037E000782005F063FF292001F0FBBEB8427CD1B0
:1037F000ED2003F0F9FA012003F0EAFAFE2003F0CD
:10380000E7FAEE2003F0F0FADE2003F0E1FA2120DF
:1038100003F0DEFAF12003F0E7FA012003F0D8FA12
:10382000DF2003F0E1FA102003F0D2FAC42003F005
:10383000DBFA8F2003F0CCFAC62003F0D5FA002083
:1038400003F0C6FAE22003F0C3FAE22003F0C0FA64
:10385000E22003F0BDFABF2003F0C6FAAA2003F06D
:10386000B7FAB02003F0C0FA0D2003F0B1FA00203F
:1038700003F0AEFA0D2003F0ABFA002003F0A8FA33
:10388000112003F0A5FA002003F0A2FA192003F09A
:103890009FFA002003F09CFA212003F099FA0020FF
:1038A00003F096FA2D2003F093FA002003F090FA2B
:1038B0003D2003F08DFA002003F08AFA5D2003F02A
:1038C00087FA002003F084FA5D2003F081FA0020DB
:1038D00003F07EFAB12003F087FA802003F078FA33
:1038E000002003F075FA8B2000E0FCE303F070FA8F
:1038F000002003F06DFA962003F06AFA002003F02E
:1039000067FAB22003F070FA002003F061FA002099
:1039100003F05EFA022003F05BFA002003F058FA8D
:10392000032003F055FA002003F052FAB32003F00D
:103930005BFA002003F04CFA002003F049FA002063
:1039400003F046FA002003F043FA002003F040FAA7
:10395000002003F03DFA002003F03AFA002003F0C3
:1039600037FA002003F034FA002003F031FA002087
:1039700003F02EFA002003F02BFA002003F028FABF
:10398000002003F025FA002003F022FA002003F0C3
:103990001FFA002003F01CFA002003F019FA00209F
:1039A00003F016FA002003F013FA002003F010FAD7
:1039B000002003F00DFA002003F00AFA002003F0C3
:1039C00007FAB42003F010FA8B2003F001FA00206C
:1039D00003F0FEF9962003F0FBF9002003F0F8F95C
:1039E000A12003F0F5F9002003F0F2F9B52003F06F
:1039F000FBF9022003F0ECF9002003F0E9F90320C1
:103A000003F0E6F9002003F0E3F9042003F0E0F905
:103A1000002003F0DDF9B62003F0E6F9002003F002
:103A2000D7F9002003F0D4F9B72003F0DDF9002026
:103A300003F0CEF9002003F0CBF93F2003F0C8F9E2
:103A4000002003F0C5F95E2003F0C2F9002003F066
:103A5000BFF9642003F0BCF9002003F0B9F98C2011
:103A600003F0B6F9002003F0B3F9AC2003F0B0F98D
:103A7000002003F0ADF9DC2003F0AAF9002003F0E8
:103A8000A7F9702003F0A4F9002003F0A1F9902019
:103A900003F09EF9002003F09BF9EB2003F098F966
:103AA000002003F095F9DC2003F092F9002003F0E8
:103AB0008FF9B82003F098F9002003F089F900206D
:103AC00003F086F9002003F083F9002003F080F969
:103AD000002003F07DF9002003F07AF9002003F0C4
:103AE00077F9002003F074F9BA2003F07DF924205F
:103AF00003F06EF9002003F06BF9002003F068F981
:103B0000002003F065F9C12003F06EF9202003F0D6
:103B10005FF9002003F05CF9542003F059F900200C
:103B200003F056F9FF2003F053F9002003F050F999
:103B3000C22003F059F90A2003F04AF9002003F0EB
:103B400047F9042003F044F9002003F041F9C320B1
:103B500003F04AF93C2003F03BF9002003F038F968
:103B60003A2003F035F9002003F032F9392003F050
:103B70002FF9002003F02CF9372003F029F9002059
:103B800003F026F93C2003F023F9002003F020F98C
:103B9000362003F01DF9002003F01AF9322003F05B
:103BA00017F9002003F014F92F2003F011F9002079
:103BB00003F00EF92C2003F00BF9002003F008F9B4
:103BC000292003F005F9002003F002F9262003F074
:103BD000FFF8002003F0FCF8242003F0F9F800209F
:103BE00003F0F6F8242003F0F3F8002003F0F0F8D7
:103BF000232003F0EDF8002003F0EAF83C2003F066
:103C0000E7F8002003F0E4F8362003F0E1F80020A4
:103C100003F0DEF8322003F0DBF8002003F0D8F8E0
:103C20002F2003F0D5F8002003F0D2F82C2003F069
:103C3000CFF8002003F0CCF8292003F0C9F80020C9
:103C400003F0C6F8262003F0C3F8002003F0C0F804
:103C5000242003F0BDF8002003F0BAF8242003F07C
:103C6000B7F8002003F0B4F8232003F0B1F80020E7
:103C700003F0AEF8C42003F0B7F8622003F0A8F810
:103C8000002003F0A5F8052003F0A2F8002003F0BF
:103C90009FF8842003F09CF8002003F099F8F020AE
:103CA00003F096F8002003F093F8182003F090F842
:103CB000002003F08DF8A42003F08AF8002003F020
:103CC00087F8182003F084F8002003F081F85020D2
:103CD00003F07EF8002003F07BF80C2003F078F866
:103CE000002003F075F8172003F072F8002003F0AD
:103CF0006FF8952003F06CF8002003F069F8F320CA
:103D000003F066F8002003F063F8E62003F060F8A3
:103D1000002003F05DF8C52003F066F8322003F0C0
:103D200057F8002003F054F8442003F051F8002025
:103D300003F04EF8652003F04BF8002003F048F83C
:103D4000762003F045F8002003F042F8882003F0C5
:103D50003FF8002003F03CF8C62003F045F820208F
:103D600003F036F8002003F033F8172003F030F8A2
:103D7000002003F02DF8012003F02AF8002003F0C2
:103D800027F8C72003F030F8002003F021F80020C6
:103D900003F01EF8002003F01BF8002003F018F8D1
:103DA000C82003F021F8002003F012F8002003F0EF
:103DB0000FF8002003F00CF8002003F009F8C920E8
:103DC00003F012F8002003F003F8002003F000F8DD
:103DD000002002F0FDFF002002F0FAFF002002F0B8
:103DE000F7FF002002F0F4FF002002F0F1FF0020B6
:103DF00002F0EEFF002002F0EBFF002002F0E8FFEF
:103E0000002002F0E5FF002002F0E2FF002002F0B7
:103E1000DFFF002002F0DCFF002002F0D9FF0020CD
:103E200002F0D6FFE02002F0DFFF162002F0D0FF04
:103E3000002002F0CDFF1C2002F0CAFF002002F09B
:103E4000C7FF212002F0C4FF002002F0C1FF36208E
:103E500002F0BEFF002002F0BBFF462002F0B8FFD8
:103E6000002002F0B5FF522002F0B2FF002002F065
:103E7000AFFF642002F0ACFF002002F0A9FF7A201F
:103E800002F0A6FF002002F0A3FF8B2002F0A0FFAB
:103E9000002002F09DFF992002F09AFF002002F01E
:103EA00097FFA82002F094FF002002F091FFB920B4
:103EB00002F08EFF002002F08BFFC42002F088FF8A
:103EC000002002F085FFCA2002F082FF002002F0ED
:103ED0007FFFD22002F07CFF002002F079FFD92082
:103EE00002F076FF002002F073FFE02002F070FF86
:103EF000002002F06DFFF32002F06AFF002002F0C4
:103F000067FFE12002F070FF162002F061FF002041
:103F100002F05EFF1C2002F05BFF002002F058FF61
:103F2000222002F055FF002002F052FF362002F05E
:103F30004FFF002002F04CFF452002F049FF002017
:103F400002F046FF522002F043FF002002F040FF43
:103F5000642002F03DFF002002F03AFF7A2002F0D8
:103F600037FF002002F034FF8B2002F031FF0020E9
:103F700002F02EFF992002F02BFF002002F028FF14
:103F8000A82002F025FF002002F022FFB92002F055
:103F90001FFF002002F01CFFC42002F019FF0020C8
:103FA00002F016FFCA2002F013FF002002F010FFFB
:103FB000D22002F00DFF002002F00AFFD82002F00C
:103FC00007FF002002F004FFE02002F001FF0020C4
:103FD00002F0FEFEF32002F0FBFE002002F0F8FEED
:103FE000E22002F001FF052002F0F2FE002002F0C4
:103FF000EFFE0B2002F0ECFE002002F0E9FE1B2099
:1040000002F0E6FE002002F0E3FE342002F0E0FEC3
:10401000002002F0DDFE442002F0DAFE002002F073
:10402000D7FE4F2002F0D4FE002002F0D1FE612026
:1040300002F0CEFE002002F0CBFE792002F0C8FE96
:10404000002002F0C5FE882002F0C2FE002002F02F
:10405000BFFE972002F0BCFE002002F0B9FEA620B1
:1040600002F0B6FE002002F0B3FEB72002F0B0FE70
:10407000002002F0ADFEC22002F0AAFE002002F0F5
:10408000A7FEC72002F0A4FE002002F0A1FED1206E
:1040900002F09EFE002002F09BFED62002F098FE69
:1040A000002002F095FEDD2002F092FE002002F0DA
:1040B0008FFEF32002F08CFE002002F089FEE32048
:1040C00002F092FE052002F083FE002002F080FE46
:1040D0000A2002F07DFE002002F07AFE1C2002F091
:1040E00077FE002000E0FDE202F072FE332002F0D5
:1040F0006FFE002002F06CFE442002F069FE0020FA
:1041000002F066FE502002F063FE002002F060FE26
:10411000622002F05DFE002002F05AFE782002F0DC
:1041200057FE002002F054FE882002F051FE0020CD
:1041300002F04EFE972002F04BFE002002F048FEF7
:10414000A62002F045FE002002F042FEB72002F059
:104150003FFE002002F03CFEC22002F039FE0020AB
:1041600002F036FEC72002F033FE002002F030FEDF
:10417000D12002F02DFE002002F02AFED52002F010
:1041800027FE002002F024FEDD2002F021FE0020A8
:1041900002F01EFEF32002F01BFE002002F018FECB
:1041A000E42002F021FE012002F012FE002002F0C5
:1041B0000FFE012002F00CFE002002F009FE02209A
:1041C00002F006FE002002F003FE2A2002F000FEAC
:1041D000002002F0FDFD3C2002F0FAFD002002F07C
:1041E000F7FD4B2002F0F4FD002002F0F1FD5D2010
:1041F00002F0EEFD002002F0EBFD742002F0E8FD7D
:10420000002002F0E5FD842002F0E2FD002002F033
:10421000DFFD932002F0DCFD002002F0D9FDA2209A
:1042200002F0D6FD002002F0D3FDB32002F0D0FD55
:10423000002002F0CDFDBE2002F0CAFD002002F0F9
:10424000C7FDC42002F0C4FD002002F0C1FDCD2056
:1042500002F0BEFD002002F0BBFDD32002F0B8FD4D
:10426000002002F0B5FDDD2002F0B2FD002002F0DA
:10427000AFFDF32002F0ACFD002002F0A9FDE52027
:1042800002F0B2FD002002F0A3FD002002F0A0FD2C
:10429000002002F09DFD002002F09AFD022002F0B5
:1042A00097FD002002F094FD292002F091FD0020EE
:1042B00002F08EFD3C2002F08BFD002002F088FD14
:1042C0004B2002F085FD002002F082FD5D2002F00F
:1042D0007FFD002002F07CFD742002F079FD0020BB
:1042E00002F076FD842002F073FD002002F070FDE4
:1042F000932002F06DFD002002F06AFDA22002F082
:1043000067FD002002F064FDB32002F061FD002093
:1043100002F05EFDBE2002F05BFD002002F058FDC1
:10432000C42002F055FD002002F052FDCD2002F025
:104330004FFD002002F04CFDD32002F049FD00208B
:1043400002F046FDDC2002F043FD002002F040FDBB
:10435000F32002F03DFD002002F03AFDE62002F0DD
:1043600043FD112002F034FD002002F031FD342025
:1043700002F02EFD002002F02BFD562002F028FD59
:10438000002002F025FD762002F022FD002002F040
:104390001FFD772002F01CFD002002F019FD6620B1
:1043A00002F016FD002002F013FD882002F010FD3F
:1043B000002002F00DFD992002F00AFD002002F01D
:1043C00007FDBB2002F004FD002002F001FD992052
:1043D00002F0FEFC002002F0FBFC662002F0F8FC7C
:1043E000002002F0F5FC552002F0F2FC002002F063
:1043F000EFFC552002F0ECFC002002F0E9FC452027
:1044000002F0E6FC002002F0E3FC432002F0E0FCB6
:10441000002002F0DDFC442002F0DAFC002002F073
:10442000D7FCE72002F0E0FC322002F0D1FC0020B3
:1044300002F0CEFC552002F0CBFC002002F0C8FCBC
:10444000762002F0C5FC002002F0C2FC662002F0DB
:10445000BFFC002002F0BCFC672002F0B9FC002089
:1044600002F0B6FC672002F0B3FC002002F0B0FCC2
:10447000872002F0ADFC002002F0AAFC992002F097
:10448000A7FC002002F0A4FCBB2002F0A1FC00204D
:1044900002F09EFC992002F09BFC002002F098FCA8
:1044A000772002F095FC002002F092FC442002F0FC
:1044B0008FFC002002F08CFC562002F089FC0020CA
:1044C00002F086FC232002F083FC002002F080FC36
:1044D000332002F07DFC002002F07AFC452002F03F
:1044E00077FC002002F074FCE82002F07DFC002044
:1044F00002F06EFC002002F06BFC992002F068FCD8
:10450000002002F065FC872002F062FC002002F02F
:104510005FFC882002F05CFC002002F059FC772050
:1045200002F056FC002002F053FC662002F050FC22
:10453000002002F04DFC882002F04AFC002002F02E
:1045400047FCAA2002F044FC002002F041FCBB2002
:1045500002F03EFC002002F03BFC992002F038FC07
:10456000002002F035FC662002F032FC002002F050
:104570002FFC552002F02CFC002002F029FC5520D5
:1045800002F026FC002002F023FC442002F020FC74
:10459000002002F01DFC442002F01AFC002002F072
:1045A00017FC552002F014FC002002F011FCE92059
:1045B00002F01AFCAA2002F00BFC002002F008FC1A
:1045C000002002F005FC002002F002FC002002F0B6
:1045D0000BFCAA2002F0FCFBCF2002F005FC00201F
:1045E00002F0F6FB002002F0F3FB002002F0F0FBEB
:1045F000002002F0EDFB002002F0EAFB002002F0B8
:10460000E7FB002002F0E4FB002002F0E1FB0020C9
:1046100002F0DEFB002002F0DBFB002002F0D8FB02
:10462000002002F0D5FB002002F0D2FB002002F0B7
:10463000CFFB002002F0CCFB002002F0C9FB0020E1
:1046400002F0C6FBF02002F0CFFB002002F0C0FB1E
:10465000502002F0BDFB002002F0BAFB002002F067
:10466000B7FB002002F0B4FBF32002F0BDFB0020FA
:1046700002F0AEFBF92002F0B7FB062002F0A8FB27
:10468000102002F0A5FB292002F0A2FB002002F07E
:104690009FFB3A2002F0A8FB552002F099FB112065
:1046A00002F0A2FB642005F001F8292002F09CFB37
:1046B000352002F099FB002002F08AFB512002F025
:1046C00093FBFF2002F084FB532002F08DFB2C2093
:1046D00002F07EFB552002F087FB822002F078FB7F
:1046E0002C20FCE3A0427DD14FF4704355211846A5
:1046F00002F090FB4FF20104AA21204602F08AFB4F
:10470000651C5221284602F085FBA61C0821304674
:1047100002F080FBE71C0121384602F07BFB0D21F3
:104720004FF4304002F076FB0D214BF2010002F015
:1047300071FB0D214BF2020002F06CFB4FF4364886
:104740003421404602F066FB34214BF2016002F056
:1047500061FB34214BF2026002F05CFB4FF4314903
:104760000D21484602F056FB4BF2011B0D21584625
:1047700002F050FB0D214BF2021002F04BFB3421F2
:104780004FF4374002F046FB34214BF2017002F047
:1047900041FB34214BF2027002F03CFB00214FF44C
:1047A000324002F037FB00214BF2012002F032FBD5
:1047B00000214BF2022002F02DFB24214FF438405F
:1047C00002F028FB24214BF6010002F023FB2421F8
:1047D0004BF6020002F01EFB01214FF43F4002F0B5
:1047E00019FB00E0FEE30F214FF4334002F012FB0F
:1047F0000F214BF2013002F00DFB0F214BF2023082
:1048000002F008FB34214FF4394002F003FB34215D
:104810004BF6011002F0FEFA34214BF6021002F0C2
:10482000F9FA08214FF4354002F0F4FA08214BF26E
:10483000015002F0EFFA08214BF2025002F0EAFABE
:1048400003214FF4424002F0E5FA24214FF43A40AC
:1048500002F0E0FA24214BF6012002F0DBFA2421D9
:104860004BF6022002F0D6FA00214FF43C4002F051
:10487000D1FA78214BF6014002F0CCFA00214BF638
:10488000024002F0C7FA00214FF43D4002F0C2FAA4
:1048900078214BF6015002F0BDFA00214BF6025090
:1048A00002F0B8FA00214FF43E4002F0B3FA64215E
:1048B0004BF6016002F0AEFA00214FF4514002F0D5
:1048C000A9FA33214DF2011002F0A4FA00214DF2B1
:1048D000021002F09FFA34214DF2031002F09AFA0E
:1048E00000214DF2041002F095FA3A214DF2051024
:1048F00002F090FA00214DF2061002F08BFA4A21E4
:104900004DF2071002F086FA00214DF2081002F075
:1049100081FA5C214DF2091002F07CFA00214DF27F
:104920000A1002F077FA81214DF20B1002F072FAB0
:1049300000214DF20C1002F06DFAA6214DF20D107F
:1049400002F068FA00214DF20E1002F063FAE52140
:104950004DF20F1002F05EFA01214DF2101002F03C
:1049600059FA13214DF2111002F054FA01214DF2BF
:10497000121002F04FFA54214DF2131002F04AFACD
:1049800001214DF2141002F045FA82214DF215106A
:1049900002F040FA01214DF2161002F03BFACA2152
:1049A0004DF2171002F036FA02214DF2181002F003
:1049B00031FA00214DF2191002F02CFA02214DF2C9
:1049C0001A1002F027FA01214DF21B1002F022FA10
:1049D00002214DF21C1002F01DFA34214DF21D107F
:1049E00002F018FA02214DF21E1002F013FA6721AC
:1049F0004DF21F1002F00EFA02214DF2201002F0CB
:104A000009FA84214DF2211002F004FA02214DF23C
:104A1000221002F0FFF9A4214DF2231002F0FAF95E
:104A200002214DF2241002F0F5F9B7214DF22510C4
:104A300002F0F0F902214DF2261002F0EBF9CF213D
:104A40004DF2271002F0E6F902214DF2281002F093
:104A5000E1F9DE214DF2291002F0DCF902214DF2DC
:104A60002A1002F0D7F9F2214DF22B1002F0D2F900
:104A700002214DF22C1002F0CDF9FE214DF22D1045
:104A800002F0C8F903214DF22E1002F0C3F91021F3
:104A90004DF22F1002F0BEF903214DF2301002F05A
:104AA000B9F933214DF2311002F0B4F903214DF27E
:104AB000321002F0AFF96D214DF2331002F0AAF975
:104AC00000214FF4524002F0A5F933214DF20120AC
:104AD00002F0A0F900214DF2022002F09BF93421EE
:104AE0004DF2032002F096F900214DF2042002F06D
:104AF00091F93A214DF2052002F08CF900214DF296
:104B0000062002F087F94A214DF2072002F082F9CF
:104B100000214DF2082002F07DF95C214DF20920C0
:104B200002F078F900214DF20A2002F073F9812198
:104B30004DF20B2002F06EF900214DF20C2002F034
:104B400069F9A6214DF20D2002F064F900214DF221
:104B50000E2002F05FF9E5214DF20F2002F05AF924
:104B600001214DF2102002F055F913214DF21120D0
:104B700002F050F901214DF2122002F04BF95421BC
:104B80004DF2132002F046F901214DF2142002F0FB
:104B900041F982214DF2152002F03CF901214DF23C
:104BA000162002F037F9CA214DF2172002F032F92F
:104BB00002214DF2182002F02DF900214DF21920AA
:104BC00002F028F902214DF21A2002F023F9012106
:104BD0004DF21B2002F01EF902214DF21C2002F0C2
:104BE00019F934214DF21D2002F014F902214DF281
:104BF0001E2002F00FF967214DF21F2002F00AF982
:104C000002214DF2202002F005F984214DF22120ED
:104C100002F000F902214DF2222002F0FBF8A4215B
:104C20004DF2232002F0F6F802214DF2242002F08A
:104C3000F1F8B7214DF2252002F0ECF802214DF2F7
:104C4000262002F0E7F8CF214DF2272002F0E2F80B
:104C500002214DF2282002F0DDF8DE214DF229205C
:104C600002F0D8F802214DF22A2002F0D3F8F22106
:104C70004DF22B2002F0CEF802214DF22C2002F052
:104C8000C9F8FE214DF22D2002F0C4F803214DF2A7
:104C90002E2002F0BFF810214DF22F2002F0BAF8BA
:104CA00003214DF2302002F0B5F833214DF23120CE
:104CB00002F0B0F803214DF2322002F0ABF86D2182
:104CC0004DF2332002F0A6F800214FF4534002F0D9
:104CD000A1F833214DF2013002F09CF800214DF291
:104CE000023002F097F834214DF2033002F092F8CE
:104CF00000214DF2043002F08DF83A214DF20530DA
:104D000002F088F800214DF2063002F083F84A21C3
:104D10004DF2073002F07EF800214DF2083002F02B
:104D200079F85C214DF2093002F074F800214DF25F
:104D30000A3002F06FF881214DF20B3002F06AF870
:104D400000214DF20C3002F065F8A6214DF20D3035
:104D500002F060F800214DF20E3002F05BF8E52120
:104D60004DF20F3002F056F801214DF2103002F0F2
:104D700051F813214DF2113002F04CF801214DF29F
:104D8000123002F047F854214DF2133002F042F88D
:104D900001214DF2143002F03DF882214DF2153020
:104DA00002F038F801214DF2163002F033F8CA2132
:104DB0004DF2173002F02EF802214DF2183002F0B9
:104DC00029F800214DF2193002F024F802214DF2A9
:104DD0001A3002F01FF801214DF21B3002F01AF8D0
:104DE00002214DF21C3002F015F834214DF21D3035
:104DF00002F010F802214DF21E3002F00BF867218C
:104E00004DF21F3002F006F802214DF2203002F080
:104E100001F884214DF2213001F0FCFF02214DF216
:104E2000223001F0F7FFA4214DF2233001F0F2FF10
:104E300002214DF2243001F0EDFFB7214DF2253073
:104E400001F0E8FF02214DF2263001F0E3FFCF210F
:104E50004DF2273001F0DEFF02214DF2283001F043
:104E6000D9FFDE214DF2293001F0D4FF02214DF2AD
:104E70002A3001F0CFFFF2214DF22B3001F0CAFFB2
:104E800002214DF22C3001F0C5FFFE214DF22D30F4
:104E900001F0C0FF03214DF22E3001F0BBFF1021C5
:104EA0004DF22F3001F0B6FF03214DF2303001F00A
:104EB000B1FF33214DF2313001F0ACFF03214DF24F
:104EC000323001F0A7FF6D214DF2333001F0A2FF27
:104ED00000214FF4544001F09DFF332100E080E3B6
:104EE0004DF2014001F096FF00214DF2024001F029
:104EF00091FF34214DF2034001F08CFF00214DF26F
:104F0000044001F087FF3A214DF2054001F082FF95
:104F100000214DF2064001F07DFF4A214DF207408D
:104F200001F078FF00214DF2084001F073FF5C2191
:104F30004DF2094001F06EFF00214DF20A4001F0F0
:104F400069FF81214DF20B4001F064FF00214DF219
:104F50000C4001F05FFFA6214DF20D4001F05AFF19
:104F600000214DF20E4001F055FFE5214DF20F40BA
:104F700001F050FF01214DF2104001F04BFF1321D1
:104F80004DF2114001F046FF01214DF2124001F0B7
:104F900041FF54214DF2134001F03CFF01214DF23D
:104FA000144001F037FF82214DF2154001F032FF2D
:104FB00001214DF2164001F02DFFCA214DF217409C
:104FC00001F028FF02214DF2184001F023FF0021DB
:104FD0004DF2194001F01EFF02214DF21A4001F07E
:104FE00019FF00E000E301214DF21B4001F012FF28
:104FF00002214DF21C4001F00DFF34214DF21D4005
:1050000001F008FF02214DF21E4001F003FF67216D
:105010004DF21F4001F0FEFE02214DF2204001F052
:10502000F9FE84214DF2214001F0F4FE02214DF2FF
:10503000224001F0EFFEA4214DF2234001F0EAFEF0
:1050400002214DF2244001F0E5FEB7214DF225404A
:1050500001F0E0FE02214DF2264001F0DBFECF21FF
:105060004DF2274001F0D6FE02214DF2284001F01A
:10507000D1FEDE214DF2294001F0CCFE02214DF29D
:105080002A4001F0C7FEF2214DF22B4001F0C2FE92
:1050900002214DF22C4001F0BDFEFE214DF22D40CB
:1050A00001F0B8FE03214DF22E4001F0B3FE1021B5
:1050B0004DF22F4001F0AEFE03214DF2304001F0E1
:1050C000A9FE33214DF2314001F0A4FE03214DF23F
:1050D000324001F09FFE6D214DF2334001F09AFE07
:1050E00000214FF4554001F095FE33214DF201505F
:1050F00001F090FE00214DF2025001F08BFE3421B0
:105100004DF2035001F086FE00214DF2045001F0F3
:1051100081FE3A214DF2055001F07CFE00214DF256
:10512000065001F077FE4A214DF2075001F072FE61
:1051300000214DF2085001F06DFE5C214DF2095046
:1051400001F068FE00214DF20A5001F063FE81215A
:105150004DF20B5001F05EFE00214DF20C5001F0BB
:1051600059FEA6214DF20D5001F054FE00214DF2E2
:105170000E5001F04FFEE5214DF20F5001F04AFEB6
:1051800001214DF2105001F045FE13214DF2115056
:1051900001F040FE01214DF2125001F03BFE54217E
:1051A0004DF2135001F036FE01214DF2145001F082
:1051B00031FE82214DF2155001F02CFE01214DF2FD
:1051C000165001F027FECA214DF2175001F022FEC1
:1051D00002214DF2185001F01DFE00214DF2195030
:1051E00001F018FE02214DF21A5001F013FE0121C8
:1051F0004DF21B5001F00EFE02214DF21C5001F049
:1052000009FE34214DF21D5001F004FE02214DF241
:105210001E5001F0FFFD67214DF21F5001F0FAFD15
:1052200002214DF2205001F0F5FD84214DF2215074
:1052300001F0F0FD02214DF2225001F0EBFDA4211E
:105240004DF2235001F0E6FD02214DF2245001F011
:10525000E1FDB7214DF2255001F0DCFD02214DF2B8
:10526000265001F0D7FDCF214DF2275001F0D2FD9D
:1052700002214DF2285001F0CDFDDE214DF22950E2
:1052800001F0C8FD02214DF22A5001F0C3FDF221C8
:105290004DF22B5001F0BEFD02214DF22C5001F0D9
:1052A000B9FDFE214DF22D5001F0B4FD03214DF268
:1052B0002E5001F0AFFD10214DF22F5001F0AAFD4C
:1052C00003214DF2305001F0A5FD33214DF2315054
:1052D00001F0A0FD03214DF2325001F09BFD6D2144
:1052E0004DF2335001F096FD00214FF4564001F08D
:1052F00091FD33214DF2016001F08CFD00214DF252
:10530000026001F087FD34214DF2036001F082FD5F
:1053100000214DF2046001F07DFD3A214DF205605F
:1053200001F078FD00214DF2066001F073FD4A2185
:105330004DF2076001F06EFD00214DF2086001F0B2
:1053400069FD5C214DF2096001F064FD00214DF220
:105350000A6001F05FFD81214DF20B6001F05AFD02
:1053600000214DF20C6001F055FDA6214DF20D60BB
:1053700001F050FD00214DF20E6001F04BFDE521E2
:105380004DF20F6001F046FD01214DF2106001F079
:1053900041FD13214DF2116001F03CFD01214DF260
:1053A000126001F037FD54214DF2136001F032FD1F
:1053B00001214DF2146001F02DFD82214DF21560A6
:1053C00001F028FD01214DF2166001F023FDCA21F4
:1053D0004DF2176001F01EFD02214DF2186001F040
:1053E00019FD00214DF2196001F014FD02214DF26A
:1053F0001A6001F00FFD01214DF21B6001F00AFD62
:1054000002214DF21C6001F005FD34214DF21D60BA
:1054100001F000FD02214DF21E6001F0FBFC67214E
:105420004DF21F6001F0F6FC02214DF2206001F008
:10543000F1FC84214DF2216001F0ECFC02214DF2DF
:10544000226001F0E7FCA4214DF2236001F0E2FCB0
:1054500002214DF2246001F0DDFCB7214DF2256000
:1054600001F0D8FC02214DF2266001F0D3FCCF21DF
:105470004DF2276001F0CEFC02214DF2286001F0D0
:10548000C9FCDE214DF2296001F0C4FC02214DF27D
:105490002A6001F0BFFCF2214DF22B6001F0BAFC52
:1054A00002214DF22C6001F0B5FCFE214DF22D6081
:1054B00001F0B0FC03214DF22E6001F0ABFC102195
:1054C0004DF22F6001F0A6FC03214DF2306001F097
:1054D000A1FC33214DF2316001F09CFC03214DF21F
:1054E000326001F097FC6D214DF2336001F092FCC7
:1054F0005521184601F08EFCAA21204601F08AFCB5
:105500005221284601F086FC0821304601F082FC39
:105510000021384601F07EFCCC21484601F07AFC9F
:105520000021584601F076FC0521404601F072FC4E
:1055300070214FF4374001F06DFC70214BF2017087
:1055400001F068FC01214FF4384001F063FC0321B5
:105550004BF6010001F05EFC03214BF6020001F066
:1055600059FC03214BF6030001F054FC02214FF4D7
:105570003C4001F04FFC00214BF6014001F04AFC99
:1055800000214BF6024001F045FCD0214FF4494088
:1055900001F040FC02214CF6011001F03BFC5021CF
:1055A0004CF6021001F036FC50214CF6031001F0CD
:1055B00031FC50214CF6041001F02CFC00214FF47A
:1055C000545001F027FC55214FF4685001F022FCA3
:1055D0004FF4885001F008FC782004F083F84FF471
:1055E000245001F001FCFDE0A0F513414FF480745C
:1055F0004FF4E06940F2022B4FF4274725397CD065
:10560000A0F5134140F20776283977D0A0F5134171
:105610004FF488784FF41C57203970D0A0F513410F
:1056200031396DD0A0F5A84108396AD0A0F5A8514C
:105630004FF44078053965D0A0F5354105397CD067
:10564000A0F54541053979D0A0F58A41313976D0A8
:10565000A0F58A41353973D0A842C4D1E22001F0C7
:10566000C3FB1D2001F0B4FB022001F0B1FB0420BC
:1056700001F0AEFB642004F035F8E02001F0B4FB4B
:10568000012001F0A5FB0A2004F010F8E02001F051
:10569000ABFB032001F09CFB0C2004F007F8012079
:1056A00001F0A2FB0A2004F001F8E62001F09CFBC7
:1056B0002F2001F08DFBFF2001F08AFBFF2001F07D
:1056C00087FBB02001F090FB202001F081FB00203F
:1056D00001F07EFB032001F07BFB40F21F3001F064
:1056E00077FB012001F074FB40F2DF1001F070FB4A
:1056F000002001F06DFBB42005E080E04BE103E207
:10570000AAE27FE3FEE301F06FFB042001F060FBFF
:1057100040F21F4001F05CFB002001F059FB2E20FD
:1057200001F056FB002001F053FB002001F050FB7C
:10573000002001F04DFB002003E0FDE3FDE3FDE36D
:10574000FDE301F045FBB62001F04EFB022001F025
:105750003FFB4FF4037001F03BFB002001F038FBEE
:10576000172001F035FB152001F032FB002001F07D
:105770002FFB002001F02CFBF02001F035FB032073
:1057800001F026FB292001F02FFBD02001F02CFB9B
:10579000002001F01DFBBE2001F026FB052001F0DA
:1057A00017FBFE2001F014FB012001F011FB00208B
:1057B00001F00EFB002001F00BFB002001F008FBC4
:1057C000B82001F011FB032001F002FB012001F0E1
:1057D000FFFABA2001F008FB012001F0F9FA642079
:1057E00000F0F6FF0020FDF7EBFB0122D103FE489D
:1057F000FCF7B0FA5046BDE8F84FFDF7ABBB47F6F3
:10580000F001E52001F006FB2146012001F002FB3A
:105810004946022001F0FEFA41F23001032001F076
:10582000F9FA0021042001F0F5FA5946082001F0A8
:10583000F1FA0021092001F0EDFA00210A2001F01F
:10584000E9FA00210C2001F0E5FA00210D2001F019
:10585000E1FA00210F2001F0DDFA0021102001F013
:10586000D9FA0721112001F0D5FA0021122001F008
:10587000D1FA0021132001F0CDFA0021072001F018
:10588000C9FA41F29061102001F0C4FA40F22721D8
:10589000112001F0BFFA9D21122001F0BBFA4FF454
:1058A000C851132001F0B6FA2521292001F0B2FADF
:1058B0000D212B2001F0AEFA0721302001F0AAFAC9
:1058C00040F20331312001F0A5FA0321322001F02A
:1058D000A1FA40F20621352001F09CFA0821362079
:1058E00001F098FA40F20641372001F093FA4FF4A4
:1058F0004171382001F08EFA0721392001F08AFA2F
:1059000040F202613C2001F085FA08213D2001F0BF
:1059100081FA0021502001F07DFAEF21512001F0A1
:1059200079FA0021522001F075FA40F23F1153201C
:1059300001F070FA3946602001F06CFA0121612013
:1059400001F068FA00216A2001F064FA0021802049
:1059500001F060FA0021812001F05CFA0021822030
:1059600001F058FA0021832001F054FA002184202C
:1059700001F050FA0021852001F04CFA102190200E
:1059800001F048FA4FF4C061922001F043FA40F26E
:1059900033110720FEE341F28F01EC2001F03AFAC7
:1059A00041F23421EF2001F035FA2146012001F0C7
:1059B00031FA4946022001F02DFA41F2300103206C
:1059C00001F028FA0021042001F024FA59460820A9
:1059D00001F020FA0021092001F01CFA00210A2020
:1059E00001F018FA01210C2001F014FA00210D2019
:1059F00001F010FA00210F2001F00CFA0021102014
:105A000001F008FA0721112001F004FA0021122008
:105A100001F000FA0021132001F0FCF90121072018
:105A200001F0F8F9322003F041FE41F290411020DC
:105A300001F0F0F940F22721112001F0EBF93220BA
:105A400003F034FE8A21122001F0E4F9322003F041
:105A50002DFE4FF4D051132001F0DCF9062129204E
:105A600001F0D8F90D212B2001F0D4F9322003F0F8
:105A70001DFE0021202001F0CDF90021212001F0A0
:105A8000C9F9322003F012FE0021302001F0C2F9E2
:105A900040F20461312001F0BDF940F205313220BD
:105AA00001F0B8F90021352001F0B4F940F60941C0
:105AB000362001F0AFF94FF40171372001F0AAF957
:105AC00040F20131382001F0A5F93146392001F0CA
:105AD000A1F900213C2001F09DF940F60A213D206A
